9000000000000000260625617601                                                                                                                                            
0500411111111111111100000 00012346176000004021425100012340625000000050000788000000050000788CAFE DE PARIS TUNIS                   7885812        011000       0 000561760
0500411111111111111100000 00012346176000008388200100012340625000000050000788000000050000788CAFE DE PARIS TUNIS                   7885812        011000       0 000561760
0500411111111111111100000 00012346176000002025402100012340625000000001550788000000001550788CAFE DE PARIS TUNIS                   7885812        011000       0 000561760
0500411111111111111100000 00012346176000006564562100012340625000000001550788000000001550788CAFE DE PARIS TUNIS                   7885812        011000       0 000561760
0500411111111111111100000 00012346176000001952101100012340625000000001550788000000001550788CAFE DE PARIS TUNIS                   7885812        011000       0 000561760
0500411111111111111100000 00012346176000006669643100012340625000000000155788000000000155788CAFE DE PARIS TUNIS                   7885812        011000       0 000561760
910000000026176000000000104805000000000006000001000000000006      00000001000000006                  000000000104805                                                    
920000000026176000000000104805000000000006000001000000000006      00000001000000006                  000000000104805                                                    
